{
    "contractName": "HyperAGI_Node_Pool",
    "abi": [
        {
            "inputs": [],
            "name": "InvalidInitialization",
            "type": "error"
        },
        {
            "inputs": [],
            "name": "NotInitializing",
            "type": "error"
        },
        {
            "inputs": [
                {
                    "internalType": "address",
                    "name": "owner",
                    "type": "address"
                }
            ],
            "name": "OwnableInvalidOwner",
            "type": "error"
        },
        {
            "inputs": [
                {
                    "internalType": "address",
                    "name": "account",
                    "type": "address"
                }
            ],
            "name": "OwnableUnauthorizedAccount",
            "type": "error"
        },
        {
            "anonymous": false,
            "inputs": [
                {
                    "indexed": false,
                    "internalType": "uint64",
                    "name": "version",
                    "type": "uint64"
                }
            ],
            "name": "Initialized",
            "type": "event"
        },
        {
            "anonymous": false,
            "inputs": [
                {
                    "indexed": true,
                    "internalType": "address",
                    "name": "previousOwner",
                    "type": "address"
                },
                {
                    "indexed": true,
                    "internalType": "address",
                    "name": "newOwner",
                    "type": "address"
                }
            ],
            "name": "OwnershipTransferred",
            "type": "event"
        },
        {
            "anonymous": false,
            "inputs": [
                {
                    "indexed": false,
                    "internalType": "bytes32",
                    "name": "sid",
                    "type": "bytes32"
                },
                {
                    "indexed": false,
                    "internalType": "address",
                    "name": "account",
                    "type": "address"
                },
                {
                    "indexed": false,
                    "internalType": "uint256",
                    "name": "pledgeAmount",
                    "type": "uint256"
                },
                {
                    "indexed": false,
                    "internalType": "uint256",
                    "name": "pledgeKeyNum",
                    "type": "uint256"
                }
            ],
            "name": "evePledge",
            "type": "event"
        },
        {
            "anonymous": false,
            "inputs": [
                {
                    "indexed": false,
                    "internalType": "bytes32",
                    "name": "sid",
                    "type": "bytes32"
                },
                {
                    "indexed": false,
                    "internalType": "uint256",
                    "name": "nodeId",
                    "type": "uint256"
                },
                {
                    "indexed": false,
                    "internalType": "address",
                    "name": "account",
                    "type": "address"
                },
                {
                    "indexed": false,
                    "internalType": "uint256",
                    "name": "pledgeAmount",
                    "type": "uint256"
                },
                {
                    "indexed": false,
                    "internalType": "uint256",
                    "name": "pledgeKeyNum",
                    "type": "uint256"
                },
                {
                    "indexed": false,
                    "internalType": "uint256",
                    "name": "level",
                    "type": "uint256"
                }
            ],
            "name": "eveSave",
            "type": "event"
        },
        {
            "inputs": [],
            "name": "_keyTokenAddress",
            "outputs": [
                {
                    "internalType": "address",
                    "name": "",
                    "type": "address"
                }
            ],
            "stateMutability": "view",
            "type": "function"
        },
        {
            "inputs": [],
            "name": "_keyTokenId",
            "outputs": [
                {
                    "internalType": "uint256",
                    "name": "",
                    "type": "uint256"
                }
            ],
            "stateMutability": "view",
            "type": "function"
        },
        {
            "inputs": [],
            "name": "_nodeMgrAddress",
            "outputs": [
                {
                    "internalType": "address",
                    "name": "",
                    "type": "address"
                }
            ],
            "stateMutability": "view",
            "type": "function"
        },
        {
            "inputs": [],
            "name": "_rolesCfgAddress",
            "outputs": [
                {
                    "internalType": "address",
                    "name": "",
                    "type": "address"
                }
            ],
            "stateMutability": "view",
            "type": "function"
        },
        {
            "inputs": [],
            "name": "_storageAddress",
            "outputs": [
                {
                    "internalType": "address",
                    "name": "",
                    "type": "address"
                }
            ],
            "stateMutability": "view",
            "type": "function"
        },
        {
            "inputs": [
                {
                    "internalType": "uint256",
                    "name": "nodeId",
                    "type": "uint256"
                },
                {
                    "internalType": "address",
                    "name": "account",
                    "type": "address"
                },
                {
                    "internalType": "uint256",
                    "name": "pledgeAmount",
                    "type": "uint256"
                },
                {
                    "internalType": "uint256",
                    "name": "pledgeKeyNum",
                    "type": "uint256"
                }
            ],
            "name": "create",
            "outputs": [],
            "stateMutability": "payable",
            "type": "function"
        },
        {
            "inputs": [
                {
                    "internalType": "bytes32",
                    "name": "sid",
                    "type": "bytes32"
                }
            ],
            "name": "getNodePoolInfo",
            "outputs": [
                {
                    "internalType": "uint256",
                    "name": "nodeId",
                    "type": "uint256"
                },
                {
                    "internalType": "address",
                    "name": "account",
                    "type": "address"
                },
                {
                    "internalType": "uint256",
                    "name": "pledgeAmount",
                    "type": "uint256"
                },
                {
                    "internalType": "uint256",
                    "name": "pledgeKeyNum",
                    "type": "uint256"
                },
                {
                    "internalType": "uint256",
                    "name": "level",
                    "type": "uint256"
                }
            ],
            "stateMutability": "view",
            "type": "function"
        },
        {
            "inputs": [
                {
                    "internalType": "address",
                    "name": "onlyOwner",
                    "type": "address"
                },
                {
                    "internalType": "uint256",
                    "name": "keyTokenId",
                    "type": "uint256"
                }
            ],
            "name": "initialize",
            "outputs": [],
            "stateMutability": "nonpayable",
            "type": "function"
        },
        {
            "inputs": [],
            "name": "owner",
            "outputs": [
                {
                    "internalType": "address",
                    "name": "",
                    "type": "address"
                }
            ],
            "stateMutability": "view",
            "type": "function"
        },
        {
            "inputs": [
                {
                    "internalType": "bytes32",
                    "name": "sid",
                    "type": "bytes32"
                },
                {
                    "internalType": "uint256",
                    "name": "pledgeAmount",
                    "type": "uint256"
                },
                {
                    "internalType": "uint256",
                    "name": "pledgeKeyNum",
                    "type": "uint256"
                }
            ],
            "name": "pledge",
            "outputs": [],
            "stateMutability": "payable",
            "type": "function"
        },
        {
            "inputs": [],
            "name": "renounceOwnership",
            "outputs": [],
            "stateMutability": "nonpayable",
            "type": "function"
        },
        {
            "inputs": [
                {
                    "internalType": "address[]",
                    "name": "contractaddressArray",
                    "type": "address[]"
                }
            ],
            "name": "setContractAddress",
            "outputs": [],
            "stateMutability": "nonpayable",
            "type": "function"
        },
        {
            "inputs": [
                {
                    "internalType": "address",
                    "name": "keyTokenAddress",
                    "type": "address"
                }
            ],
            "name": "setKeyTokenAddress",
            "outputs": [],
            "stateMutability": "nonpayable",
            "type": "function"
        },
        {
            "inputs": [
                {
                    "internalType": "uint256",
                    "name": "keyTokenId",
                    "type": "uint256"
                }
            ],
            "name": "setKeyTokenId",
            "outputs": [],
            "stateMutability": "nonpayable",
            "type": "function"
        },
        {
            "inputs": [
                {
                    "internalType": "address",
                    "name": "nodeMgrAddress",
                    "type": "address"
                }
            ],
            "name": "setNodeMgrAddress",
            "outputs": [],
            "stateMutability": "nonpayable",
            "type": "function"
        },
        {
            "inputs": [
                {
                    "internalType": "address",
                    "name": "rolesCfgAddress",
                    "type": "address"
                }
            ],
            "name": "setRolesCfgAddress",
            "outputs": [],
            "stateMutability": "nonpayable",
            "type": "function"
        },
        {
            "inputs": [
                {
                    "internalType": "address",
                    "name": "storageAddress",
                    "type": "address"
                }
            ],
            "name": "setStorageAddress",
            "outputs": [],
            "stateMutability": "nonpayable",
            "type": "function"
        },
        {
            "inputs": [
                {
                    "internalType": "address",
                    "name": "newOwner",
                    "type": "address"
                }
            ],
            "name": "transferOwnership",
            "outputs": [],
            "stateMutability": "nonpayable",
            "type": "function"
        }
    ],
    "bytecode": "608080604052346015576120b7908161001a8239f35b5f80fdfe6080806040526004361015610012575f80fd5b5f905f3560e01c908163388ca29e1461190a57508063593b328f14610f2a57806359b910d614610eea578063622320b214610ecc5780636dc92c3a14610e8c578063715018a614610e235780637a0d886214610e005780638c008cdd14610dd75780638da5cb5b14610da25780639eb8ffd014610d7b578063a1967e0a14610d3b578063ab9edf1314610cf5578063b686f55a14610ccc578063bb70f7f314610ca3578063c2fb5922146102a6578063cd6dc68714610153578063e2fc7d8d146101135763f2fde38b146100e4575f80fd5b346101105760203660031901126101105761010d610100611a9e565b610108611fe3565b611f72565b80f35b80fd5b50346101105760203660031901126101105761012d611a9e565b610135611fe3565b60018060a01b03166001600160601b0360a01b600254161760025580f35b50346101105760403660031901126101105761016d611a9e565b5f5160206120625f395f51905f52549060ff8260401c16159167ffffffffffffffff81168015908161029e575b6001149081610294575b15908161028b575b5061027c5767ffffffffffffffff1981166001175f5160206120625f395f51905f52556101eb919083610250575b506101e3612016565b610108612016565b6024356004556101f85780f35b68ff0000000000000000195f5160206120625f395f51905f5254165f5160206120625f395f51905f52557fc7f505b2f371ae2175ee4913f4499e1f2633a7b5936321eed1cdaeb6115181d2602060405160018152a180f35b68ffffffffffffffffff191668010000000000000001175f5160206120625f395f51905f52555f6101da565b63f92ee8a960e01b8452600484fd5b9050155f6101ac565b303b1591506101a4565b84915061019a565b50606036600319011261011057600435602435604435908060018060a01b0360015416811580158091610c9a575b15610c5557610c20575b83610b32575b60405160208101906573746174757360d01b82528660268201526026815261030d604682611a7c565b51902060405190630f6f869560e01b825260048201528681602481855afa908115610b27578791610a80575b50602081519101206040516020810190600160fc1b82526001815261035f602182611a7c565b51902003610a3b5785916040516020810190701d1bdd185b141b195919d9505b5bdd5b9d607a1b82528760318201526031815261039d605182611a7c565b5190206040516020810190701d1bdd185b141b195919d9505b5bdd5b9d607a1b8252886031820152603181526103d4605182611a7c565b519020604051906390427e2d60e01b82526004820152602081602481875afa908115610924578591610a04575b508261040c91611b91565b833b156109b0576040519163bc451d4160e01b835260048301526024820152838160448183875af19081156108d85784916109ef575b5050604051602081019070746f74616c506c656467654b65794e756d60781b825287603182015260318152610478605182611a7c565b519020604051602081019070746f74616c506c656467654b65794e756d60781b8252886031820152603181526104af605182611a7c565b519020604051906390427e2d60e01b82526004820152602081602481875afa801561092457879186916109b4575b50906104e891611b91565b833b156109b0576040519163bc451d4160e01b835260048301526024820152838160448183875af19081156108d857849161099b575b5050604051602081019061054581610537338b86611c18565b03601f198101835282611a7c565b51902090604051916390427e2d60e01b83526004830152602082602481865afa9182156108d8578492610964575b5081610711575050604051602081019061059281610537338a86611bb2565b519020813b156106e957604051906316c2ac8f60e01b82526004820152836024820152828160448183865af19081156107065783916106ed575b505060405160208101906105e581610537338a86611be5565b519020813b156106e95782916044839260405194859384926316c2ac8f60e01b845260048401528960248401525af180156106de576106c1575b5050917fc24f2c5fd3088a399077762f39b05033309e983818621f47140ee53233e11c3860c0927f8044f2b2b95a45d64100dd6e94ad714825c4f2743afe0182ecb647413680a5e6945b60408051858152336020820152908101919091526060810191909152608090a161069281611c4a565b93604093919351958652602086015260018060a01b031660408501526060840152608083015260a0820152a180f35b816106ce91959395611a7c565b6106da5791835f61061f565b8380fd5b6040513d84823e3d90fd5b8280fd5b816106f791611a7c565b61070257815f6105cc565b5080fd5b6040513d85823e3d90fd5b90949350604051602081019061072d8161053789338c87611f04565b519020604051906390427e2d60e01b82526004820152602081602481865afa9081156108d857849161092f575b506040516020810190610773816105378a338d87611f3b565b51902091604051926390427e2d60e01b84526004840152602083602481875afa9283156109245785936108e3575b506107b692916107b091611b91565b94611b91565b9360405160208101906107cf8161053785338c87611f04565b519020823b156106da576040519063bc451d4160e01b82526004820152846024820152838160448183875af19081156108d85784916108c3575b5050604051610822816105376020820194338b87611f3b565b519020813b156106e957829160448392604051948593849263bc451d4160e01b845260048401528960248401525af180156106de576108aa575b5050917fc24f2c5fd3088a399077762f39b05033309e983818621f47140ee53233e11c3860c0927f8044f2b2b95a45d64100dd6e94ad714825c4f2743afe0182ecb647413680a5e694610669565b816108b791959395611a7c565b6106da5791835f61085c565b816108cd91611a7c565b6106e957825f610809565b6040513d86823e3d90fd5b94509091506020843d60201161091c575b8161090160209383611a7c565b8101031261091857925187939091906107b06107a1565b5f80fd5b3d91506108f4565b6040513d87823e3d90fd5b9350506020833d60201161095c575b8161094b60209383611a7c565b81010312610918578692515f61075a565b3d915061093e565b935090506020833d602011610993575b8161098160209383611a7c565b8101031261091857869251905f610573565b3d9150610974565b816109a591611a7c565b6106e957825f61051e565b8480fd5b955050506020843d6020116109e7575b816109d160209383611a7c565b81010312610918576104e88689955190916104dd565b3d91506109c4565b816109f991611a7c565b6106e957825f610442565b9450506020843d602011610a33575b81610a2060209383611a7c565b8101031261091857925187939082610401565b3d9150610a13565b60405162461bcd60e51b815260206004820152601760248201527f6e6f646520706f6f6c206973206e6f74206163746976650000000000000000006044820152606490fd5b90503d8088833e610a918183611a7c565b810190602081830312610b1f5780519067ffffffffffffffff8211610b23570181601f82011215610b1f57805167ffffffffffffffff8111610b0b576040519289929190610ae9601f8301601f191660200186611a7c565b818552602082840101116106e9578060208093018386015e830101525f610339565b634e487b7160e01b89526041600452602489fd5b8780fd5b8880fd5b6040513d89823e3d90fd5b60035460048054604051627eeac760e11b8152339281019290925260248201819052889290916001600160a01b0390911690602081604481855afa80156108d85788918591610be5575b5090610b89911015611b00565b803b156106e957868391610bb69383604051809681958294637921219560e11b8452303360048601611b4c565b03925af180156106de57610bcc575b50506102e4565b81610bd691611a7c565b610be157855f610bc5565b8580fd5b945050506020833d602011610c18575b81610c0260209383611a7c565b8101031261091857610b89878a94519091610b7c565b3d9150610bf5565b610c2b823414611ab4565b85803415610c4c575b8180809234903090f16102de576040513d87823e3d90fd5b506108fc610c34565b60405162461bcd60e51b815260206004820152601960248201527f6d75737420706c6564676520616d6f756e74206f72206b6579000000000000006044820152606490fd5b508415156102d4565b50346101105780600319360112610110576001546040516001600160a01b039091168152602090f35b50346101105780600319360112610110576003546040516001600160a01b039091168152602090f35b50346101105760203660031901126101105760a0610d14600435611c4a565b92604092919251948552600180871b03166020850152604084015260608301526080820152f35b503461011057602036600319011261011057610d55611a9e565b610d5d611fe3565b60018060a01b03166001600160601b0360a01b600354161760035580f35b5034610110578060031936011261011057546040516001600160a01b039091168152602090f35b50346101105780600319360112610110575f5160206120425f395f51905f52546040516001600160a01b039091168152602090f35b50346101105780600319360112610110576002546040516001600160a01b039091168152602090f35b503461011057602036600319011261011057610e1a611fe3565b60043560045580f35b5034610110578060031936011261011057610e3c611fe3565b5f5160206120425f395f51905f5280546001600160a01b0319811690915581906001600160a01b03167f8be0079c531659141344cd1fd0a4f28419497f9722a3daafe3b4186f6b6457e08280a380f35b503461011057602036600319011261011057610ea6611a9e565b610eae611fe3565b81546001600160a01b0319166001600160a01b039190911617815580f35b50346101105780600319360112610110576020600454604051908152f35b503461011057602036600319011261011057610f04611a9e565b610f0c611fe3565b60018060a01b03166001600160601b0360a01b600154161760015580f35b506080366003190112610918576024356001600160a01b03811690818103610918575f5460405163c395fcb360e01b815233600482015260443593916064359190602090829060249082906001600160a01b03165afa908115611858575f916118cf575b501561189957610f9f843414611ab4565b60035460048054604051627eeac760e11b81526001600160a01b03878116938201939093526024810182905290929190911690602081604481855afa80156118585784905f90611863575b610ff692501015611b00565b803b1561091857825f916110239383604051809681958294637921219560e11b8452308d60048601611b4c565b03925af1801561185857611843575b508480341561183a575b8180809234903090f1156108d857600154604051635e4b419360e11b81526001600160a01b039091169490926020846004818a8a5af1938415610b27578794611806575b50866040516020810190428252446040820152866060820152606081526110a8608082611a7c565b519020946040516020810190651b995e1d125960d21b8252600681526110cf602682611a7c565b519020883b156106e957604051906384e45c5560e01b825260048201528660248201528281604481838d5af19081156107065783916117f1575b50506040516020810190666e65787449647360c81b82526007815261112f602782611a7c565b51902090883b156106e957604051916316c2ac8f60e01b8352600483015260248201528181604481838c5af180156106de576117dc575b506040516020810190661858d8dbdd5b9d60ca1b825286602782015260278152611191604782611a7c565b519020873b1561070257604051906345b709a760e11b825260048201528260248201528181604481838c5af180156106de576117c7575b506040516020810190641b195d995b60da1b8252866025820152602581526111f1604582611a7c565b519020873b15610702576040519063bc451d4160e01b82526004820152600160248201528181604481838c5af180156106de576117b2575b5060405160208101906573746174757360d01b825286602682015260268152611253604682611a7c565b519020966040978851906112678a83611a7c565b60018252600160fc1b6020830190815290833b156109b05760648b91869383519586948593636bd3f4eb60e01b8552600485015260248401525180918160448501528484015e8181018301859052601f01601f1916810103018183865af19081156116bf57839161179d575b505087516020810190701d1bdd185b141b195919d9505b5bdd5b9d607a1b825287603182015260318152611308605182611a7c565b51902088516020810190701d1bdd185b141b195919d9505b5bdd5b9d607a1b82528860318201526031815261133e605182611a7c565b5190208951906390427e2d60e01b82526004820152602081602481865afa80156117435786918591611762575b509061137691611b91565b823b156106da5789519163bc451d4160e01b835260048301526024820152828160448183865af19081156116bf57839161174d575b50508751602081019070746f74616c506c656467654b65794e756d60781b8252876031820152603181526113e0605182611a7c565b5190208851602081019070746f74616c506c656467654b65794e756d60781b825288603182015260318152611416605182611a7c565b5190208951906390427e2d60e01b82526004820152602081602481865afa80156117435787918591611708575b509061144e91611b91565b823b156106da5789519163bc451d4160e01b835260048301526024820152828160448183865af19081156116bf5783916116f3575b50508751602081019061149b816105378b8b86611bb2565b519020813b156106e9578851906316c2ac8f60e01b82526004820152846024820152828160448183865af19081156116bf5783916116de575b5050875160208101906114ec816105378b8b86611be5565b519020813b156106e9578851906316c2ac8f60e01b82526004820152856024820152828160448183865af19081156116bf5783916116c9575b5050875160208101906a0e0d8cac8ceca92dcc8caf60ab1b825287602b820152602b8152611554604b82611a7c565b519020813b156106e95788519063bc451d4160e01b82526004820152826024820152828160448183865af19081156116bf5783916116aa575b5050875160208101906115a5816105378b8b86611c18565b519020813b156106e9578291604483928b51948593849263bc451d4160e01b84526004840152600160248401525af180156116a057611681575b505090857f8044f2b2b95a45d64100dd6e94ad714825c4f2743afe0182ecb647413680a5e660c061167b95947fc24f2c5fd3088a399077762f39b05033309e983818621f47140ee53233e11c38995190888252600435602083015284820152846060820152856080820152600160a0820152a15194859485909493926060926080830196835260018060a01b0316602083015260408201520152565b0390a180f35b8161168f9195949395611a7c565b61169c579091865f6115df565b8680fd5b88513d84823e3d90fd5b816116b491611a7c565b61070257815f61158d565b89513d85823e3d90fd5b816116d391611a7c565b61070257815f611525565b816116e891611a7c565b61070257815f6114d4565b816116fd91611a7c565b61070257815f611483565b945050506020833d60201161173b575b8161172560209383611a7c565b810103126109185761144e868b94519091611443565b3d9150611718565b8a513d86823e3d90fd5b8161175791611a7c565b61070257815f6113ab565b945050506020833d602011611795575b8161177f60209383611a7c565b8101031261091857611376858b9451909161136b565b3d9150611772565b816117a791611a7c565b61070257815f6112d3565b816117bc91611a7c565b61169c57865f611229565b816117d191611a7c565b61169c57865f6111c8565b816117e691611a7c565b61169c57865f611166565b816117fb91611a7c565b61070257815f611109565b9093506020813d602011611832575b8161182260209383611a7c565b810103126109185751925f611080565b3d9150611815565b506108fc61103c565b6118509195505f90611a7c565b5f935f611032565b6040513d5f823e3d90fd5b50506020813d602011611891575b8161187e60209383611a7c565b810103126109185783610ff69151610fea565b3d9150611871565b60405162461bcd60e51b815260206004820152600e60248201526d6e6f742061646d696e20726f6c6560901b6044820152606490fd5b90506020813d602011611902575b816118ea60209383611a7c565b8101031261091857518015158103610918575f610f8e565b3d91506118dd565b346109185760203660031901126109185760043567ffffffffffffffff811161091857366023820112156109185780600401359067ffffffffffffffff8211611a68578160051b9161195f6020840185611a7c565b83526020830190602482938201019036821161091857602401915b818310611a485750505061198c611fe3565b815115611a345760018060a01b039051166001600160601b0360a01b5f5416175f55805160011015611a34576040810160018060a01b039051166001600160601b0360a01b6001541617600155805160021015611a34576060810160018060a01b039051166001600160601b0360a01b6002541617600255805160031015611a345760800151600380546001600160a01b0319166001600160a01b0392909216919091179055005b634e487b7160e01b5f52603260045260245ffd5b82356001600160a01b03811681036109185781526020928301920161197a565b634e487b7160e01b5f52604160045260245ffd5b90601f8019910116810190811067ffffffffffffffff821117611a6857604052565b600435906001600160a01b038216820361091857565b15611abb57565b60405162461bcd60e51b815260206004820152601b60248201527f706c6564676520616d6f756e74206973206e6f7420656e6f75676800000000006044820152606490fd5b15611b0757565b60405162461bcd60e51b815260206004820152601c60248201527f706c65646765206b6579206e756d206973206e6f7420656e6f756768000000006044820152606490fd5b6001600160a01b039182168152911660208201526040810191909152606081019190915260a0608082018190526003908201526203078360ec1b60c082015260e00190565b91908201809211611b9e57565b634e487b7160e01b5f52601160045260245ffd5b90916040926b1c1b195919d9505b5bdd5b9d60a21b8352600c8301526001600160601b03199060601b16602c8201520190565b90916040926b706c656467654b65794e756d60a01b8352600c8301526001600160601b03199060601b16602c8201520190565b9091603f926a0e0d8cac8ceca92dcc8caf60ab1b8352600b8301526001600160601b03199060601b16602b8201520190565b60018060a01b0360015416906040516020810190651b9bd919525960d21b825282602682015260268152611c7f604682611a7c565b51902091604051926390427e2d60e01b84526004840152602083602481845afa928315611858575f93611ed0575b506040516020810190661858d8dbdd5b9d60ca1b825283602782015260278152611cd8604782611a7c565b519020936040519463700c994560e11b86526004860152602085602481855afa948515611858575f95611e8c575b506040516020810190611d1e81610537898886611bb2565b51902093604051946390427e2d60e01b86526004860152602085602481865afa948515611858575f95611e58575b506040516020810190611d64816105378a8986611be5565b51902093604051946390427e2d60e01b86526004860152602085602481875afa948515611858575f95611e23575b5060209060405182810191641b195d995b60da1b8352602582015260258152611dbc604582611a7c565b5190206024604051809681936390427e2d60e01b835260048301525afa928315611858575f93611def575b509493929190565b9092506020813d602011611e1b575b81611e0b60209383611a7c565b810103126109185751915f611de7565b3d9150611dfe565b9094506020813d602011611e50575b81611e3f60209383611a7c565b810103126109185751936020611d92565b3d9150611e32565b9094506020813d602011611e84575b81611e7460209383611a7c565b810103126109185751935f611d4c565b3d9150611e67565b9094506020813d602011611ec8575b81611ea860209383611a7c565b8101031261091857516001600160a01b038116810361091857935f611d06565b3d9150611e9b565b9092506020813d602011611efc575b81611eec60209383611a7c565b810103126109185751915f611cad565b3d9150611edf565b91606093916b1c1b195919d9505b5bdd5b9d60a21b8452600c8401526001600160601b031990841b16602c83015260408201520190565b91606093916b706c656467654b65794e756d60a01b8452600c8401526001600160601b031990841b16602c83015260408201520190565b6001600160a01b03168015611fd0575f5160206120425f395f51905f5280546001600160a01b0319811683179091556001600160a01b03167f8be0079c531659141344cd1fd0a4f28419497f9722a3daafe3b4186f6b6457e05f80a3565b631e4fbdf760e01b5f525f60045260245ffd5b5f5160206120425f395f51905f52546001600160a01b0316330361200357565b63118cdaa760e01b5f523360045260245ffd5b60ff5f5160206120625f395f51905f525460401c161561203257565b631afcd79f60e31b5f5260045ffdfe9016d09d72d40fdae2fd8ceac6b6234c7706214fd39c1cd1e609a0528c199300f0c57e16840df040f15088dc2f81fe391c3923bec73e23a9662efc9c229c6a00a264697066735822122052a95751b831ee3750fdece79629d0cb5232dc8709475f4072eb61338434d7b064736f6c634300081c0033",
    "sourcePath": "d:/mossai/HyperdustProtocol/contracts/node/HyperAGI_Node_Pool.sol",
    "compiler": {
        "name": "solc",
        "version": "0.8.28+commit.7893614a"
    },
    "functionHashes": {
        "_keyTokenAddress()": "b686f55a",
        "_keyTokenId()": "622320b2",
        "_nodeMgrAddress()": "8c008cdd",
        "_rolesCfgAddress()": "9eb8ffd0",
        "_storageAddress()": "bb70f7f3",
        "create(uint256,address,uint256,uint256)": "593b328f",
        "getNodePoolInfo(bytes32)": "ab9edf13",
        "initialize(address,uint256)": "cd6dc687",
        "owner()": "8da5cb5b",
        "pledge(bytes32,uint256,uint256)": "c2fb5922",
        "renounceOwnership()": "715018a6",
        "setContractAddress(address[])": "388ca29e",
        "setKeyTokenAddress(address)": "a1967e0a",
        "setKeyTokenId(uint256)": "7a0d8862",
        "setNodeMgrAddress(address)": "e2fc7d8d",
        "setRolesCfgAddress(address)": "6dc92c3a",
        "setStorageAddress(address)": "59b910d6",
        "transferOwnership(address)": "f2fde38b"
    },
    "gasEstimates": {
        "creation": {
            "codeDepositCost": "1675000",
            "executionCost": "1767",
            "totalCost": "1676767"
        },
        "external": {
            "_keyTokenAddress()": "2552",
            "_keyTokenId()": "2330",
            "_nodeMgrAddress()": "2442",
            "_rolesCfgAddress()": "2483",
            "_storageAddress()": "2574",
            "create(uint256,address,uint256,uint256)": "infinite",
            "getNodePoolInfo(bytes32)": "infinite",
            "initialize(address,uint256)": "infinite",
            "owner()": "infinite",
            "pledge(bytes32,uint256,uint256)": "infinite",
            "renounceOwnership()": "28240",
            "setContractAddress(address[])": "infinite",
            "setKeyTokenAddress(address)": "26876",
            "setKeyTokenId(uint256)": "24573",
            "setNodeMgrAddress(address)": "27008",
            "setRolesCfgAddress(address)": "26750",
            "setStorageAddress(address)": "26700",
            "transferOwnership(address)": "28632"
        },
        "internal": {
            "generateUniqueHash(uint256)": "infinite"
        }
    }
}